:100000000C942A000C9434000C9434000C943400AA
:100010000C9434000C9434000C9434000C94340090
:100020000C9434000C9434000C9434000C94340080
:100030000C9434000C9434000C9434000C94340070
:100040000C9434000C9434000C9434000C94340060
:100050000C94340011241FBECFE5D8E0DEBFCDBF25
:100060000E9441000C944B000C9400008AEB82BF6C
:1000700082E083BF08B600FEFDCF13BE81E088BFDB
:1000800008951F938FEF87BB10E10E94360088B35D
:0A009000812788BBFACFF894FFCF58
:00000001FF
