:100000000C942A000C9434000C9434000C943400AA
:100010000C9434000C9434000C9434000C94340090
:100020000C9434000C9434000C9434000C94340080
:100030000C9434000C9434000C9434000C94340070
:100040000C9434000C9434000C9434000C94340060
:100050000C94340011241FBECFE5D8E0DEBFCDBF25
:100060000E9436000C9444000C9400008FEF81BB7A
:1000700087BB1ABA87E886B980EE87B9369A349B6F
:0C008000FECF85B188BBFACFF894FFCF0B
:00000001FF
