:100000000C942A000C9434000C9434000C943400AA
:100010000C9434000C9434000C9434000C94340090
:100020000C9434000C9434000C9434000C94340080
:100030000C9434000C9434000C9434000C94340070
:100040000C9434000C9434000C9434000C94340060
:100050000C94340011241FBECFE5D8E0DEBFCDBF25
:100060000E9444000C944E000C94000085E88DBD65
:100070008EEE8CBD1FBC84E08EBD08B602FEFDCFA7
:100080001EBC84E088BF08951F938FEF87BB10E1EB
:1000900088B3812788BB0E943600FACFF894FFCF3F
:00000001FF
