:100000000C942A000C943F000C943F000C943F0089
:100010000C943F000C943F000C943F000C943F0064
:100020000C943F000C943F000C943F000C943F0054
:100030000C943F000C943F000C943F000C943F0044
:100040000C943F000C943F000C943F000C943F0034
:100050000C943F0011241FBECFE5D8E0DEBFCDBF1A
:1000600010E0A0E6B0E0E2ECF0E002C005900D92F6
:10007000A037B107D9F70E9441000C945F000C949F
:1000800000008FEF81BB90EF94BB85BB85B38F7071
:1000900085BB83B38F708F30C9F787E893E10197F1
:1000A000F1F700C0000083B38F708F30B1F387E8A1
:1000B00093E10197F1F700C0000083B3E7CFF89414
:0200C000FFCF70
:1000C200303132333435363738394142434445468C
:00000001FF
