:100000000C942A000C943F000C943F000C943F0089
:100010000C943F000C943F000C943F000C943F0064
:100020000C943F000C943F000C943F000C943F0054
:100030000C943F000C943F000C943F000C943F0044
:100040000C943F000C943F000C943F000C943F0034
:100050000C943F0011241FBECFE5D8E0DEBFCDBF1A
:1000600010E0A0E6B0E0E4E5F1E002C005900D92FA
:10007000A037B107D9F70E9441000C94A8000C9456
:1000800000008FEF81BB90EF94BB85BB2FEE80E625
:1000900090E030E04FED51E06FEB72E0BFE7A3E09E
:1000A000E5B3EF70E5BBE3B3EF70EF30C9F7E7E816
:1000B000F3E13197F1F700C00000E3B3EF70EF30E8
:1000C000B1F325BBF3B3FF70FF3079F445BBF3B355
:1000D000FF70FF3061F465BBF3B3FF70FF3049F48C
:1000E000B5BBF3B3FF70EA2F05C0E32F03C0E52FC4
:1000F00001C0E72FFE3051F4F0E0EE0FFF1FEE0FCE
:10010000FF1FE80FF91FE081E2BBCACFFD3051F4B9
:10011000F0E0EE0FFF1FEE0FFF1FE80FF91FE18168
:10012000E2BBBECFFB3051F4F0E0EE0FFF1FEE0F4D
:10013000FF1FE80FF91FE281E2BBB2CFF0E0EE0F44
:10014000FF1FEE0FFF1FE80FF91FE381E2BBA8CFEF
:04015000F894FFCF51
:1001540030313233343536373839414243444546F9
:00000001FF
