:100000000C942A000C9434000C9434000C943400AA
:100010000C9434000C9434000C9434000C94340090
:100020000C9434000C9434000C9434000C94340080
:100030000C9434000C9434000C9434000C94340070
:100040000C9434000C9434000C9434000C94340060
:100050000C94340011241FBECFE5D8E0DEBFCDBF25
:100060000E9436000C9449000C9400008FEF8ABB6C
:1000700080E090E08BBBE7EAF1E63197F1F700C052
:1000800000000196F1E080309F07A1F780E090E04A
:060090000895F894FFCF73
:00000001FF
